{
  "contractName": "GameAccountExchanger",
  "abi": [
    {
      "inputs": [],
      "stateMutability": "nonpayable",
      "type": "constructor"
    },
    {
      "anonymous": false,
      "inputs": [
        {
          "indexed": true,
          "internalType": "address",
          "name": "owner",
          "type": "address"
        },
        {
          "indexed": true,
          "internalType": "address",
          "name": "approved",
          "type": "address"
        },
        {
          "indexed": true,
          "internalType": "uint256",
          "name": "tokenId",
          "type": "uint256"
        }
      ],
      "name": "Approval",
      "type": "event"
    },
    {
      "anonymous": false,
      "inputs": [
        {
          "indexed": true,
          "internalType": "address",
          "name": "owner",
          "type": "address"
        },
        {
          "indexed": true,
          "internalType": "address",
          "name": "operator",
          "type": "address"
        },
        {
          "indexed": false,
          "internalType": "bool",
          "name": "approved",
          "type": "bool"
        }
      ],
      "name": "ApprovalForAll",
      "type": "event"
    },
    {
      "anonymous": false,
      "inputs": [
        {
          "indexed": false,
          "internalType": "uint256",
          "name": "id",
          "type": "uint256"
        },
        {
          "indexed": false,
          "internalType": "string",
          "name": "gameName",
          "type": "string"
        },
        {
          "indexed": false,
          "internalType": "string",
          "name": "accountName",
          "type": "string"
        },
        {
          "indexed": false,
          "internalType": "string",
          "name": "password",
          "type": "string"
        },
        {
          "indexed": false,
          "internalType": "string",
          "name": "description",
          "type": "string"
        },
        {
          "indexed": false,
          "internalType": "uint256",
          "name": "price",
          "type": "uint256"
        },
        {
          "indexed": false,
          "internalType": "address payable",
          "name": "owner",
          "type": "address"
        },
        {
          "indexed": false,
          "internalType": "bool",
          "name": "forSale",
          "type": "bool"
        },
        {
          "indexed": false,
          "internalType": "uint256",
          "name": "request",
          "type": "uint256"
        }
      ],
      "name": "GameAccountCreated",
      "type": "event"
    },
    {
      "anonymous": false,
      "inputs": [
        {
          "indexed": true,
          "internalType": "address",
          "name": "from",
          "type": "address"
        },
        {
          "indexed": true,
          "internalType": "address",
          "name": "to",
          "type": "address"
        },
        {
          "indexed": true,
          "internalType": "uint256",
          "name": "tokenId",
          "type": "uint256"
        }
      ],
      "name": "Transfer",
      "type": "event"
    },
    {
      "inputs": [
        {
          "internalType": "address",
          "name": "to",
          "type": "address"
        },
        {
          "internalType": "uint256",
          "name": "tokenId",
          "type": "uint256"
        }
      ],
      "name": "approve",
      "outputs": [],
      "stateMutability": "nonpayable",
      "type": "function"
    },
    {
      "inputs": [
        {
          "internalType": "address",
          "name": "owner",
          "type": "address"
        }
      ],
      "name": "balanceOf",
      "outputs": [
        {
          "internalType": "uint256",
          "name": "",
          "type": "uint256"
        }
      ],
      "stateMutability": "view",
      "type": "function",
      "constant": true
    },
    {
      "inputs": [
        {
          "internalType": "uint256",
          "name": "",
          "type": "uint256"
        }
      ],
      "name": "gameAccounts",
      "outputs": [
        {
          "internalType": "uint256",
          "name": "id",
          "type": "uint256"
        },
        {
          "internalType": "string",
          "name": "gameName",
          "type": "string"
        },
        {
          "internalType": "string",
          "name": "accountName",
          "type": "string"
        },
        {
          "internalType": "string",
          "name": "password",
          "type": "string"
        },
        {
          "internalType": "string",
          "name": "description",
          "type": "string"
        },
        {
          "internalType": "uint256",
          "name": "price",
          "type": "uint256"
        },
        {
          "internalType": "address payable",
          "name": "owner",
          "type": "address"
        },
        {
          "internalType": "bool",
          "name": "forSale",
          "type": "bool"
        },
        {
          "internalType": "uint256",
          "name": "request",
          "type": "uint256"
        }
      ],
      "stateMutability": "view",
      "type": "function",
      "constant": true
    },
    {
      "inputs": [
        {
          "internalType": "uint256",
          "name": "tokenId",
          "type": "uint256"
        }
      ],
      "name": "getApproved",
      "outputs": [
        {
          "internalType": "address",
          "name": "",
          "type": "address"
        }
      ],
      "stateMutability": "view",
      "type": "function",
      "constant": true
    },
    {
      "inputs": [
        {
          "internalType": "address",
          "name": "owner",
          "type": "address"
        },
        {
          "internalType": "address",
          "name": "operator",
          "type": "address"
        }
      ],
      "name": "isApprovedForAll",
      "outputs": [
        {
          "internalType": "bool",
          "name": "",
          "type": "bool"
        }
      ],
      "stateMutability": "view",
      "type": "function",
      "constant": true
    },
    {
      "inputs": [],
      "name": "name",
      "outputs": [
        {
          "internalType": "string",
          "name": "",
          "type": "string"
        }
      ],
      "stateMutability": "view",
      "type": "function",
      "constant": true
    },
    {
      "inputs": [
        {
          "internalType": "uint256",
          "name": "tokenId",
          "type": "uint256"
        }
      ],
      "name": "ownerOf",
      "outputs": [
        {
          "internalType": "address",
          "name": "",
          "type": "address"
        }
      ],
      "stateMutability": "view",
      "type": "function",
      "constant": true
    },
    {
      "inputs": [
        {
          "internalType": "address",
          "name": "from",
          "type": "address"
        },
        {
          "internalType": "address",
          "name": "to",
          "type": "address"
        },
        {
          "internalType": "uint256",
          "name": "tokenId",
          "type": "uint256"
        }
      ],
      "name": "safeTransferFrom",
      "outputs": [],
      "stateMutability": "nonpayable",
      "type": "function"
    },
    {
      "inputs": [
        {
          "internalType": "address",
          "name": "from",
          "type": "address"
        },
        {
          "internalType": "address",
          "name": "to",
          "type": "address"
        },
        {
          "internalType": "uint256",
          "name": "tokenId",
          "type": "uint256"
        },
        {
          "internalType": "bytes",
          "name": "data",
          "type": "bytes"
        }
      ],
      "name": "safeTransferFrom",
      "outputs": [],
      "stateMutability": "nonpayable",
      "type": "function"
    },
    {
      "inputs": [
        {
          "internalType": "address",
          "name": "operator",
          "type": "address"
        },
        {
          "internalType": "bool",
          "name": "approved",
          "type": "bool"
        }
      ],
      "name": "setApprovalForAll",
      "outputs": [],
      "stateMutability": "nonpayable",
      "type": "function"
    },
    {
      "inputs": [
        {
          "internalType": "bytes4",
          "name": "interfaceId",
          "type": "bytes4"
        }
      ],
      "name": "supportsInterface",
      "outputs": [
        {
          "internalType": "bool",
          "name": "",
          "type": "bool"
        }
      ],
      "stateMutability": "view",
      "type": "function",
      "constant": true
    },
    {
      "inputs": [],
      "name": "symbol",
      "outputs": [
        {
          "internalType": "string",
          "name": "",
          "type": "string"
        }
      ],
      "stateMutability": "view",
      "type": "function",
      "constant": true
    },
    {
      "inputs": [
        {
          "internalType": "uint256",
          "name": "index",
          "type": "uint256"
        }
      ],
      "name": "tokenByIndex",
      "outputs": [
        {
          "internalType": "uint256",
          "name": "",
          "type": "uint256"
        }
      ],
      "stateMutability": "view",
      "type": "function",
      "constant": true
    },
    {
      "inputs": [
        {
          "internalType": "address",
          "name": "owner",
          "type": "address"
        },
        {
          "internalType": "uint256",
          "name": "index",
          "type": "uint256"
        }
      ],
      "name": "tokenOfOwnerByIndex",
      "outputs": [
        {
          "internalType": "uint256",
          "name": "",
          "type": "uint256"
        }
      ],
      "stateMutability": "view",
      "type": "function",
      "constant": true
    },
    {
      "inputs": [
        {
          "internalType": "uint256",
          "name": "tokenId",
          "type": "uint256"
        }
      ],
      "name": "tokenURI",
      "outputs": [
        {
          "internalType": "string",
          "name": "",
          "type": "string"
        }
      ],
      "stateMutability": "view",
      "type": "function",
      "constant": true
    },
    {
      "inputs": [],
      "name": "totalSupply",
      "outputs": [
        {
          "internalType": "uint256",
          "name": "",
          "type": "uint256"
        }
      ],
      "stateMutability": "view",
      "type": "function",
      "constant": true
    },
    {
      "inputs": [
        {
          "internalType": "address",
          "name": "from",
          "type": "address"
        },
        {
          "internalType": "address",
          "name": "to",
          "type": "address"
        },
        {
          "internalType": "uint256",
          "name": "tokenId",
          "type": "uint256"
        }
      ],
      "name": "transferFrom",
      "outputs": [],
      "stateMutability": "nonpayable",
      "type": "function"
    },
    {
      "inputs": [
        {
          "internalType": "string",
          "name": "_gameName",
          "type": "string"
        },
        {
          "internalType": "string",
          "name": "_accountName",
          "type": "string"
        },
        {
          "internalType": "string",
          "name": "_password",
          "type": "string"
        },
        {
          "internalType": "string",
          "name": "_description",
          "type": "string"
        },
        {
          "internalType": "uint256",
          "name": "_price",
          "type": "uint256"
        }
      ],
      "name": "createGameAccount",
      "outputs": [],
      "stateMutability": "nonpayable",
      "type": "function"
    },
    {
      "inputs": [
        {
          "internalType": "uint256",
          "name": "_id",
          "type": "uint256"
        }
      ],
      "name": "buyGameAccount",
      "outputs": [],
      "stateMutability": "payable",
      "type": "function",
      "payable": true
    },
    {
      "inputs": [],
      "name": "getGameAccountTokens",
      "outputs": [
        {
          "internalType": "uint256[]",
          "name": "",
          "type": "uint256[]"
        }
      ],
      "stateMutability": "view",
      "type": "function",
      "constant": true
    },
    {
      "inputs": [
        {
          "internalType": "uint256",
          "name": "_id",
          "type": "uint256"
        }
      ],
      "name": "getGameAccountDetails",
      "outputs": [
        {
          "internalType": "uint256",
          "name": "",
          "type": "uint256"
        },
        {
          "internalType": "string",
          "name": "",
          "type": "string"
        },
        {
          "internalType": "string",
          "name": "",
          "type": "string"
        },
        {
          "internalType": "string",
          "name": "",
          "type": "string"
        },
        {
          "internalType": "string",
          "name": "",
          "type": "string"
        },
        {
          "internalType": "uint256",
          "name": "",
          "type": "uint256"
        },
        {
          "internalType": "address",
          "name": "",
          "type": "address"
        },
        {
          "internalType": "bool",
          "name": "",
          "type": "bool"
        },
        {
          "internalType": "uint256",
          "name": "",
          "type": "uint256"
        }
      ],
      "stateMutability": "view",
      "type": "function",
      "constant": true
    },
    {
      "inputs": [],
      "name": "getAllGameAccountTokensForSale",
      "outputs": [
        {
          "internalType": "uint256[]",
          "name": "",
          "type": "uint256[]"
        }
      ],
      "stateMutability": "view",
      "type": "function",
      "constant": true
    },
    {
      "inputs": [
        {
          "internalType": "uint256",
          "name": "_id",
          "type": "uint256"
        },
        {
          "internalType": "uint256",
          "name": "price",
          "type": "uint256"
        }
      ],
      "name": "change_sale_state",
      "outputs": [],
      "stateMutability": "nonpayable",
      "type": "function"
    },
    {
      "inputs": [
        {
          "internalType": "uint256",
          "name": "_id",
          "type": "uint256"
        },
        {
          "internalType": "string",
          "name": "_description",
          "type": "string"
        }
      ],
      "name": "addDescriptionToToken",
      "outputs": [],
      "stateMutability": "nonpayable",
      "type": "function"
    },
    {
      "inputs": [
        {
          "internalType": "uint256",
          "name": "_id",
          "type": "uint256"
        },
        {
          "internalType": "uint256",
          "name": "_id2",
          "type": "uint256"
        }
      ],
      "name": "tokenExchange",
      "outputs": [],
      "stateMutability": "nonpayable",
      "type": "function"
    },
    {
      "inputs": [
        {
          "internalType": "uint256",
          "name": "_id",
          "type": "uint256"
        },
        {
          "internalType": "uint256",
          "name": "_id2",
          "type": "uint256"
        }
      ],
      "name": "requestTokenExchange",
      "outputs": [],
      "stateMutability": "nonpayable",
      "type": "function"
    },
    {
      "inputs": [
        {
          "internalType": "uint256",
          "name": "_id",
          "type": "uint256"
        }
      ],
      "name": "rejectRequest",
      "outputs": [],
      "stateMutability": "nonpayable",
      "type": "function"
    }
  ],
  "bytecode": "0x60806040523480156200001157600080fd5b506040518060400160405280601481526020017f47616d654163636f756e7445786368616e6765720000000000000000000000008152506040518060400160405280600381526020017f474145000000000000000000000000000000000000000000000000000000000081525081600090816200008f919062000324565b508060019081620000a1919062000324565b5050506200040b565b600081519050919050565b7f4e487b7100000000000000000000000000000000000000000000000000000000600052604160045260246000fd5b7f4e487b7100000000000000000000000000000000000000000000000000000000600052602260045260246000fd5b600060028204905060018216806200012c57607f821691505b602082108103620001425762000141620000e4565b5b50919050565b60008190508160005260206000209050919050565b60006020601f8301049050919050565b600082821b905092915050565b600060088302620001ac7fffffffffffffffffffffffffffffffffffffffffffffffffffffffffffffffff826200016d565b620001b886836200016d565b95508019841693508086168417925050509392505050565b6000819050919050565b6000819050919050565b600062000205620001ff620001f984620001d0565b620001da565b620001d0565b9050919050565b6000819050919050565b6200022183620001e4565b6200023962000230826200020c565b8484546200017a565b825550505050565b600090565b6200025062000241565b6200025d81848462000216565b505050565b5b8181101562000285576200027960008262000246565b60018101905062000263565b5050565b601f821115620002d4576200029e8162000148565b620002a9846200015d565b81016020851015620002b9578190505b620002d1620002c8856200015d565b83018262000262565b50505b505050565b600082821c905092915050565b6000620002f960001984600802620002d9565b1980831691505092915050565b6000620003148383620002e6565b9150826002028217905092915050565b6200032f82620000aa565b67ffffffffffffffff8111156200034b576200034a620000b5565b5b62000357825462000113565b6200036482828562000289565b600060209050601f8311600181146200039c576000841562000387578287015190505b62000393858262000306565b86555062000403565b601f198416620003ac8662000148565b60005b82811015620003d657848901518255600182019150602085019450602081019050620003af565b86831015620003f65784890151620003f2601f891682620002e6565b8355505b6001600288020188555050505b505050505050565b615349806200041b6000396000f3fe60806040526004361061019c5760003560e01c806359523c5f116100ec578063a22cb4651161008a578063c87b56dd11610064578063c87b56dd14610608578063d0a2bb8314610645578063e985e9c514610670578063f75ca884146106ad5761019c565b8063a22cb4651461058d578063b88d4fde146105b6578063c6964314146105df5761019c565b806366abd5f1116100c657806366abd5f1146104b757806370a08231146104fc57806395d89b411461053957806398f1a24d146105645761019c565b806359523c5f1461040c5780635d2c6793146104355780636352211e1461047a5761019c565b80632a33b2e51161015957806330600c9d1161013357806330600c9d1461035257806342842e0e1461037d5780634d5da332146103a65780634f6ccce7146103cf5761019c565b80632a33b2e5146102c35780632d7788db146102ec5780632f745c59146103155761019c565b806301ffc9a7146101a157806306fdde03146101de578063081812fc14610209578063095ea7b31461024657806318160ddd1461026f57806323b872dd1461029a575b600080fd5b3480156101ad57600080fd5b506101c860048036038101906101c391906139e5565b6106c9565b6040516101d59190613a2d565b60405180910390f35b3480156101ea57600080fd5b506101f3610743565b6040516102009190613ad8565b60405180910390f35b34801561021557600080fd5b50610230600480360381019061022b9190613b30565b6107d5565b60405161023d9190613b9e565b60405180910390f35b34801561025257600080fd5b5061026d60048036038101906102689190613be5565b61081b565b005b34801561027b57600080fd5b50610284610932565b6040516102919190613c34565b60405180910390f35b3480156102a657600080fd5b506102c160048036038101906102bc9190613c4f565b61093f565b005b3480156102cf57600080fd5b506102ea60048036038101906102e59190613ca2565b61099f565b005b3480156102f857600080fd5b50610313600480360381019061030e9190613b30565b610ab6565b005b34801561032157600080fd5b5061033c60048036038101906103379190613be5565b610b7b565b6040516103499190613c34565b60405180910390f35b34801561035e57600080fd5b50610367610c20565b6040516103749190613da0565b60405180910390f35b34801561038957600080fd5b506103a4600480360381019061039f9190613c4f565b610cd0565b005b3480156103b257600080fd5b506103cd60048036038101906103c89190613ef7565b610cf0565b005b3480156103db57600080fd5b506103f660048036038101906103f19190613b30565b610eb0565b6040516104039190613c34565b60405180910390f35b34801561041857600080fd5b50610433600480360381019061042e9190613ca2565b610f21565b005b34801561044157600080fd5b5061045c60048036038101906104579190613b30565b610fe6565b60405161047199989796959493929190614003565b60405180910390f35b34801561048657600080fd5b506104a1600480360381019061049c9190613b30565b611281565b6040516104ae9190613b9e565b60405180910390f35b3480156104c357600080fd5b506104de60048036038101906104d99190613b30565b611307565b6040516104f3999897969594939291906140ac565b60405180910390f35b34801561050857600080fd5b50610523600480360381019061051e9190614155565b61165d565b6040516105309190613c34565b60405180910390f35b34801561054557600080fd5b5061054e611714565b60405161055b9190613ad8565b60405180910390f35b34801561057057600080fd5b5061058b60048036038101906105869190613ca2565b6117a6565b005b34801561059957600080fd5b506105b460048036038101906105af91906141ae565b611fc8565b005b3480156105c257600080fd5b506105dd60048036038101906105d8919061428f565b611fde565b005b3480156105eb57600080fd5b5061060660048036038101906106019190614312565b612040565b005b34801561061457600080fd5b5061062f600480360381019061062a9190613b30565b61210e565b60405161063c9190613ad8565b60405180910390f35b34801561065157600080fd5b5061065a612176565b6040516106679190613da0565b60405180910390f35b34801561067c57600080fd5b506106976004803603810190610692919061436e565b612228565b6040516106a49190613a2d565b60405180910390f35b6106c760048036038101906106c29190613b30565b6122bc565b005b60007f780e9d63000000000000000000000000000000000000000000000000000000007bffffffffffffffffffffffffffffffffffffffffffffffffffffffff1916827bffffffffffffffffffffffffffffffffffffffffffffffffffffffff1916148061073c575061073b826126de565b5b9050919050565b606060008054610752906143dd565b80601f016020809104026020016040519081016040528092919081815260200182805461077e906143dd565b80156107cb5780601f106107a0576101008083540402835291602001916107cb565b820191906000526020600020905b8154815290600101906020018083116107ae57829003601f168201915b5050505050905090565b60006107e0826127c0565b6004600083815260200190815260200160002060009054906101000a900473ffffffffffffffffffffffffffffffffffffffff169050919050565b600061082682611281565b90508073ffffffffffffffffffffffffffffffffffffffff168373ffffffffffffffffffffffffffffffffffffffff1603610896576040517f08c379a000000000000000000000000000000000000000000000000000000000815260040161088d90614480565b60405180910390fd5b8073ffffffffffffffffffffffffffffffffffffffff166108b561280b565b73ffffffffffffffffffffffffffffffffffffffff1614806108e457506108e3816108de61280b565b612228565b5b610923576040517f08c379a000000000000000000000000000000000000000000000000000000000815260040161091a90614512565b60405180910390fd5b61092d8383612813565b505050565b6000600880549050905090565b61095061094a61280b565b826128cc565b61098f576040517f08c379a0000000000000000000000000000000000000000000000000000000008152600401610986906145a4565b60405180910390fd5b61099a838383612961565b505050565b813373ffffffffffffffffffffffffffffffffffffffff16600a600083815260200190815260200160002060060160009054906101000a900473ffffffffffffffffffffffffffffffffffffffff1673ffffffffffffffffffffffffffffffffffffffff1614610a44576040517f08c379a0000000000000000000000000000000000000000000000000000000008152600401610a3b90614610565b60405180910390fd5b600a600084815260200190815260200160002060060160149054906101000a900460ff1615600a600085815260200190815260200160002060060160146101000a81548160ff02191690831515021790555081600a600085815260200190815260200160002060050181905550505050565b803373ffffffffffffffffffffffffffffffffffffffff16600a600083815260200190815260200160002060060160009054906101000a900473ffffffffffffffffffffffffffffffffffffffff1673ffffffffffffffffffffffffffffffffffffffff1614610b5b576040517f08c379a0000000000000000000000000000000000000000000000000000000008152600401610b5290614610565b60405180910390fd5b6000600a6000848152602001908152602001600020600701819055505050565b6000610b868361165d565b8210610bc7576040517f08c379a0000000000000000000000000000000000000000000000000000000008152600401610bbe906146a2565b60405180910390fd5b600660008473ffffffffffffffffffffffffffffffffffffffff1673ffffffffffffffffffffffffffffffffffffffff168152602001908152602001600020600083815260200190815260200160002054905092915050565b60606000610c2c610932565b905060008167ffffffffffffffff811115610c4a57610c49613dcc565b5b604051908082528060200260200182016040528015610c785781602001602082028036833780820191505090505b50905060005b82811015610cc7576000610c9182610eb0565b905080838381518110610ca757610ca66146c2565b5b602002602001018181525050508080610cbf90614720565b915050610c7e565b50809250505090565b610ceb83838360405180602001604052806000815250611fde565b505050565b60006001610cfc610932565b610d069190614768565b90506040518061012001604052808281526020018781526020018681526020018581526020018481526020018381526020013373ffffffffffffffffffffffffffffffffffffffff1681526020016000151581526020016000815250600a6000838152602001908152602001600020600082015181600001556020820151816001019081610d949190614948565b506040820151816002019081610daa9190614948565b506060820151816003019081610dc09190614948565b506080820151816004019081610dd69190614948565b5060a0820151816005015560c08201518160060160006101000a81548173ffffffffffffffffffffffffffffffffffffffff021916908373ffffffffffffffffffffffffffffffffffffffff16021790555060e08201518160060160146101000a81548160ff0219169083151502179055506101008201518160070155905050610e603382612c5a565b7f0b7d6cb089d65627edd440f98ff4a9d8adea8cc238915dd8ac6aad1aa047045981878787878733600080604051610ea099989796959493929190614a55565b60405180910390a1505050505050565b6000610eba610932565b8210610efb576040517f08c379a0000000000000000000000000000000000000000000000000000000008152600401610ef290614b70565b60405180910390fd5b60088281548110610f0f57610f0e6146c2565b5b90600052602060002001549050919050565b803373ffffffffffffffffffffffffffffffffffffffff16600a600083815260200190815260200160002060060160009054906101000a900473ffffffffffffffffffffffffffffffffffffffff1673ffffffffffffffffffffffffffffffffffffffff1614610fc6576040517f08c379a0000000000000000000000000000000000000000000000000000000008152600401610fbd90614610565b60405180910390fd5b81600a600085815260200190815260200160002060070181905550505050565b600a60205280600052604060002060009150905080600001549080600101805461100f906143dd565b80601f016020809104026020016040519081016040528092919081815260200182805461103b906143dd565b80156110885780601f1061105d57610100808354040283529160200191611088565b820191906000526020600020905b81548152906001019060200180831161106b57829003601f168201915b50505050509080600201805461109d906143dd565b80601f01602080910402602001604051908101604052809291908181526020018280546110c9906143dd565b80156111165780601f106110eb57610100808354040283529160200191611116565b820191906000526020600020905b8154815290600101906020018083116110f957829003601f168201915b50505050509080600301805461112b906143dd565b80601f0160208091040260200160405190810160405280929190818152602001828054611157906143dd565b80156111a45780601f10611179576101008083540402835291602001916111a4565b820191906000526020600020905b81548152906001019060200180831161118757829003601f168201915b5050505050908060040180546111b9906143dd565b80601f01602080910402602001604051908101604052809291908181526020018280546111e5906143dd565b80156112325780601f1061120757610100808354040283529160200191611232565b820191906000526020600020905b81548152906001019060200180831161121557829003601f168201915b5050505050908060050154908060060160009054906101000a900473ffffffffffffffffffffffffffffffffffffffff16908060060160149054906101000a900460ff16908060070154905089565b60008061128d83612e77565b9050600073ffffffffffffffffffffffffffffffffffffffff168173ffffffffffffffffffffffffffffffffffffffff16036112fe576040517f08c379a00000000000000000000000000000000000000000000000000000000081526004016112f590614bdc565b60405180910390fd5b80915050919050565b60006060806060806000806000806000600a60008c81526020019081526020016000206040518061012001604052908160008201548152602001600182018054611350906143dd565b80601f016020809104026020016040519081016040528092919081815260200182805461137c906143dd565b80156113c95780601f1061139e576101008083540402835291602001916113c9565b820191906000526020600020905b8154815290600101906020018083116113ac57829003601f168201915b505050505081526020016002820180546113e2906143dd565b80601f016020809104026020016040519081016040528092919081815260200182805461140e906143dd565b801561145b5780601f106114305761010080835404028352916020019161145b565b820191906000526020600020905b81548152906001019060200180831161143e57829003601f168201915b50505050508152602001600382018054611474906143dd565b80601f01602080910402602001604051908101604052809291908181526020018280546114a0906143dd565b80156114ed5780601f106114c2576101008083540402835291602001916114ed565b820191906000526020600020905b8154815290600101906020018083116114d057829003601f168201915b50505050508152602001600482018054611506906143dd565b80601f0160208091040260200160405190810160405280929190818152602001828054611532906143dd565b801561157f5780601f106115545761010080835404028352916020019161157f565b820191906000526020600020905b81548152906001019060200180831161156257829003601f168201915b50505050508152602001600582015481526020016006820160009054906101000a900473ffffffffffffffffffffffffffffffffffffffff1673ffffffffffffffffffffffffffffffffffffffff1673ffffffffffffffffffffffffffffffffffffffff1681526020016006820160149054906101000a900460ff161515151581526020016007820154815250509050806000015181602001518260400151836060015184608001518560a001518660c001518760e00151886101000151995099509950995099509950995099509950509193959799909294969850565b60008073ffffffffffffffffffffffffffffffffffffffff168273ffffffffffffffffffffffffffffffffffffffff16036116cd576040517f08c379a00000000000000000000000000000000000000000000000000000000081526004016116c490614c6e565b60405180910390fd5b600360008373ffffffffffffffffffffffffffffffffffffffff1673ffffffffffffffffffffffffffffffffffffffff168152602001908152602001600020549050919050565b606060018054611723906143dd565b80601f016020809104026020016040519081016040528092919081815260200182805461174f906143dd565b801561179c5780601f106117715761010080835404028352916020019161179c565b820191906000526020600020905b81548152906001019060200180831161177f57829003601f168201915b5050505050905090565b813373ffffffffffffffffffffffffffffffffffffffff16600a600083815260200190815260200160002060060160009054906101000a900473ffffffffffffffffffffffffffffffffffffffff1673ffffffffffffffffffffffffffffffffffffffff161461184b576040517f08c379a000000000000000000000000000000000000000000000000000000000815260040161184290614610565b60405180910390fd5b6000600a60008581526020019081526020016000206040518061012001604052908160008201548152602001600182018054611886906143dd565b80601f01602080910402602001604051908101604052809291908181526020018280546118b2906143dd565b80156118ff5780601f106118d4576101008083540402835291602001916118ff565b820191906000526020600020905b8154815290600101906020018083116118e257829003601f168201915b50505050508152602001600282018054611918906143dd565b80601f0160208091040260200160405190810160405280929190818152602001828054611944906143dd565b80156119915780601f1061196657610100808354040283529160200191611991565b820191906000526020600020905b81548152906001019060200180831161197457829003601f168201915b505050505081526020016003820180546119aa906143dd565b80601f01602080910402602001604051908101604052809291908181526020018280546119d6906143dd565b8015611a235780601f106119f857610100808354040283529160200191611a23565b820191906000526020600020905b815481529060010190602001808311611a0657829003601f168201915b50505050508152602001600482018054611a3c906143dd565b80601f0160208091040260200160405190810160405280929190818152602001828054611a68906143dd565b8015611ab55780601f10611a8a57610100808354040283529160200191611ab5565b820191906000526020600020905b815481529060010190602001808311611a9857829003601f168201915b50505050508152602001600582015481526020016006820160009054906101000a900473ffffffffffffffffffffffffffffffffffffffff1673ffffffffffffffffffffffffffffffffffffffff1673ffffffffffffffffffffffffffffffffffffffff1681526020016006820160149054906101000a900460ff1615151515815260200160078201548152505090506000600a60008581526020019081526020016000206040518061012001604052908160008201548152602001600182018054611b80906143dd565b80601f0160208091040260200160405190810160405280929190818152602001828054611bac906143dd565b8015611bf95780601f10611bce57610100808354040283529160200191611bf9565b820191906000526020600020905b815481529060010190602001808311611bdc57829003601f168201915b50505050508152602001600282018054611c12906143dd565b80601f0160208091040260200160405190810160405280929190818152602001828054611c3e906143dd565b8015611c8b5780601f10611c6057610100808354040283529160200191611c8b565b820191906000526020600020905b815481529060010190602001808311611c6e57829003601f168201915b50505050508152602001600382018054611ca4906143dd565b80601f0160208091040260200160405190810160405280929190818152602001828054611cd0906143dd565b8015611d1d5780601f10611cf257610100808354040283529160200191611d1d565b820191906000526020600020905b815481529060010190602001808311611d0057829003601f168201915b50505050508152602001600482018054611d36906143dd565b80601f0160208091040260200160405190810160405280929190818152602001828054611d62906143dd565b8015611daf5780601f10611d8457610100808354040283529160200191611daf565b820191906000526020600020905b815481529060010190602001808311611d9257829003601f168201915b50505050508152602001600582015481526020016006820160009054906101000a900473ffffffffffffffffffffffffffffffffffffffff1673ffffffffffffffffffffffffffffffffffffffff1673ffffffffffffffffffffffffffffffffffffffff1681526020016006820160149054906101000a900460ff1615151515815260200160078201548152505090503373ffffffffffffffffffffffffffffffffffffffff168160c0015173ffffffffffffffffffffffffffffffffffffffff1603611eb1576040517f08c379a0000000000000000000000000000000000000000000000000000000008152600401611ea890614d00565b60405180910390fd5b611ec48260c001518260c0015187612961565b611ed78160c001518360c0015186612961565b8060c00151600a600087815260200190815260200160002060060160006101000a81548173ffffffffffffffffffffffffffffffffffffffff021916908373ffffffffffffffffffffffffffffffffffffffff1602179055508160c00151600a600086815260200190815260200160002060060160006101000a81548173ffffffffffffffffffffffffffffffffffffffff021916908373ffffffffffffffffffffffffffffffffffffffff1602179055506000600a6000878152602001908152602001600020600701819055506000600a6000868152602001908152602001600020600701819055505050505050565b611fda611fd361280b565b8383612eb4565b5050565b611fef611fe961280b565b836128cc565b61202e576040517f08c379a0000000000000000000000000000000000000000000000000000000008152600401612025906145a4565b60405180910390fd5b61203a84848484613020565b50505050565b813373ffffffffffffffffffffffffffffffffffffffff16600a600083815260200190815260200160002060060160009054906101000a900473ffffffffffffffffffffffffffffffffffffffff1673ffffffffffffffffffffffffffffffffffffffff16146120e5576040517f08c379a00000000000000000000000000000000000000000000000000000000081526004016120dc90614610565b60405180910390fd5b81600a600085815260200190815260200160002060040190816121089190614948565b50505050565b6060612119826127c0565b600061212361307c565b90506000815111612143576040518060200160405280600081525061216e565b8061214d84613093565b60405160200161215e929190614d5c565b6040516020818303038152906040525b915050919050565b606060006121833361165d565b905060008167ffffffffffffffff8111156121a1576121a0613dcc565b5b6040519080825280602002602001820160405280156121cf5781602001602082028036833780820191505090505b50905060005b8281101561221f5760006121e93383610b7b565b9050808383815181106121ff576121fe6146c2565b5b60200260200101818152505050808061221790614720565b9150506121d5565b50809250505090565b6000600560008473ffffffffffffffffffffffffffffffffffffffff1673ffffffffffffffffffffffffffffffffffffffff16815260200190815260200160002060008373ffffffffffffffffffffffffffffffffffffffff1673ffffffffffffffffffffffffffffffffffffffff16815260200190815260200160002060009054906101000a900460ff16905092915050565b6000600a600083815260200190815260200160002060405180610120016040529081600082015481526020016001820180546122f7906143dd565b80601f0160208091040260200160405190810160405280929190818152602001828054612323906143dd565b80156123705780601f1061234557610100808354040283529160200191612370565b820191906000526020600020905b81548152906001019060200180831161235357829003601f168201915b50505050508152602001600282018054612389906143dd565b80601f01602080910402602001604051908101604052809291908181526020018280546123b5906143dd565b80156124025780601f106123d757610100808354040283529160200191612402565b820191906000526020600020905b8154815290600101906020018083116123e557829003601f168201915b5050505050815260200160038201805461241b906143dd565b80601f0160208091040260200160405190810160405280929190818152602001828054612447906143dd565b80156124945780601f1061246957610100808354040283529160200191612494565b820191906000526020600020905b81548152906001019060200180831161247757829003601f168201915b505050505081526020016004820180546124ad906143dd565b80601f01602080910402602001604051908101604052809291908181526020018280546124d9906143dd565b80156125265780601f106124fb57610100808354040283529160200191612526565b820191906000526020600020905b81548152906001019060200180831161250957829003601f168201915b50505050508152602001600582015481526020016006820160009054906101000a900473ffffffffffffffffffffffffffffffffffffffff1673ffffffffffffffffffffffffffffffffffffffff1673ffffffffffffffffffffffffffffffffffffffff1681526020016006820160149054906101000a900460ff161515151581526020016007820154815250509050348160a00151146125fc576040517f08c379a00000000000000000000000000000000000000000000000000000000081526004016125f390614df2565b60405180910390fd5b8060c0015173ffffffffffffffffffffffffffffffffffffffff166108fc349081150290604051600060405180830381858888f19350505050158015612646573d6000803e3d6000fd5b506126568160c001513384612961565b33600a600084815260200190815260200160002060060160006101000a81548173ffffffffffffffffffffffffffffffffffffffff021916908373ffffffffffffffffffffffffffffffffffffffff1602179055506000600a600084815260200190815260200160002060060160146101000a81548160ff0219169083151502179055505050565b60007f80ac58cd000000000000000000000000000000000000000000000000000000007bffffffffffffffffffffffffffffffffffffffffffffffffffffffff1916827bffffffffffffffffffffffffffffffffffffffffffffffffffffffff191614806127a957507f5b5e139f000000000000000000000000000000000000000000000000000000007bffffffffffffffffffffffffffffffffffffffffffffffffffffffff1916827bffffffffffffffffffffffffffffffffffffffffffffffffffffffff1916145b806127b957506127b882613161565b5b9050919050565b6127c9816131cb565b612808576040517f08c379a00000000000000000000000000000000000000000000000000000000081526004016127ff90614bdc565b60405180910390fd5b50565b600033905090565b816004600083815260200190815260200160002060006101000a81548173ffffffffffffffffffffffffffffffffffffffff021916908373ffffffffffffffffffffffffffffffffffffffff160217905550808273ffffffffffffffffffffffffffffffffffffffff1661288683611281565b73ffffffffffffffffffffffffffffffffffffffff167f8c5be1e5ebec7d5bd14f71427d1e84f3dd0314c0f7b2291e5b200ac8c7c3b92560405160405180910390a45050565b6000806128d883611281565b90508073ffffffffffffffffffffffffffffffffffffffff168473ffffffffffffffffffffffffffffffffffffffff16148061291a57506129198185612228565b5b8061295857508373ffffffffffffffffffffffffffffffffffffffff16612940846107d5565b73ffffffffffffffffffffffffffffffffffffffff16145b91505092915050565b8273ffffffffffffffffffffffffffffffffffffffff1661298182611281565b73ffffffffffffffffffffffffffffffffffffffff16146129d7576040517f08c379a00000000000000000000000000000000000000000000000000000000081526004016129ce90614e84565b60405180910390fd5b600073ffffffffffffffffffffffffffffffffffffffff168273ffffffffffffffffffffffffffffffffffffffff1603612a46576040517f08c379a0000000000000000000000000000000000000000000000000000000008152600401612a3d90614f16565b60405180910390fd5b612a53838383600161320c565b8273ffffffffffffffffffffffffffffffffffffffff16612a7382611281565b73ffffffffffffffffffffffffffffffffffffffff1614612ac9576040517f08c379a0000000000000000000000000000000000000000000000000000000008152600401612ac090614e84565b60405180910390fd5b6004600082815260200190815260200160002060006101000a81549073ffffffffffffffffffffffffffffffffffffffff02191690556001600360008573ffffffffffffffffffffffffffffffffffffffff1673ffffffffffffffffffffffffffffffffffffffff168152602001908152602001600020600082825403925050819055506001600360008473ffffffffffffffffffffffffffffffffffffffff1673ffffffffffffffffffffffffffffffffffffffff16815260200190815260200160002060008282540192505081905550816002600083815260200190815260200160002060006101000a81548173ffffffffffffffffffffffffffffffffffffffff021916908373ffffffffffffffffffffffffffffffffffffffff160217905550808273ffffffffffffffffffffffffffffffffffffffff168473ffffffffffffffffffffffffffffffffffffffff167fddf252ad1be2c89b69c2b068fc378daa952ba7f163c4a11628f55a4df523b3ef60405160405180910390a4612c55838383600161336a565b505050565b600073ffffffffffffffffffffffffffffffffffffffff168273ffffffffffffffffffffffffffffffffffffffff1603612cc9576040517f08c379a0000000000000000000000000000000000000000000000000000000008152600401612cc090614f82565b60405180910390fd5b612cd2816131cb565b15612d12576040517f08c379a0000000000000000000000000000000000000000000000000000000008152600401612d0990614fee565b60405180910390fd5b612d2060008383600161320c565b612d29816131cb565b15612d69576040517f08c379a0000000000000000000000000000000000000000000000000000000008152600401612d6090614fee565b60405180910390fd5b6001600360008473ffffffffffffffffffffffffffffffffffffffff1673ffffffffffffffffffffffffffffffffffffffff16815260200190815260200160002060008282540192505081905550816002600083815260200190815260200160002060006101000a81548173ffffffffffffffffffffffffffffffffffffffff021916908373ffffffffffffffffffffffffffffffffffffffff160217905550808273ffffffffffffffffffffffffffffffffffffffff16600073ffffffffffffffffffffffffffffffffffffffff167fddf252ad1be2c89b69c2b068fc378daa952ba7f163c4a11628f55a4df523b3ef60405160405180910390a4612e7360008383600161336a565b5050565b60006002600083815260200190815260200160002060009054906101000a900473ffffffffffffffffffffffffffffffffffffffff169050919050565b8173ffffffffffffffffffffffffffffffffffffffff168373ffffffffffffffffffffffffffffffffffffffff1603612f22576040517f08c379a0000000000000000000000000000000000000000000000000000000008152600401612f199061505a565b60405180910390fd5b80600560008573ffffffffffffffffffffffffffffffffffffffff1673ffffffffffffffffffffffffffffffffffffffff16815260200190815260200160002060008473ffffffffffffffffffffffffffffffffffffffff1673ffffffffffffffffffffffffffffffffffffffff16815260200190815260200160002060006101000a81548160ff0219169083151502179055508173ffffffffffffffffffffffffffffffffffffffff168373ffffffffffffffffffffffffffffffffffffffff167f17307eab39ab6107e8899845ad3d59bd9653f200f220920489ca2b5937696c31836040516130139190613a2d565b60405180910390a3505050565b61302b848484612961565b61303784848484613370565b613076576040517f08c379a000000000000000000000000000000000000000000000000000000000815260040161306d906150ec565b60405180910390fd5b50505050565b606060405180602001604052806000815250905090565b6060600060016130a2846134f7565b01905060008167ffffffffffffffff8111156130c1576130c0613dcc565b5b6040519080825280601f01601f1916602001820160405280156130f35781602001600182028036833780820191505090505b509050600082602001820190505b600115613156578080600190039150507f3031323334353637383961626364656600000000000000000000000000000000600a86061a8153600a858161314a5761314961510c565b5b04945060008503613101575b819350505050919050565b60007f01ffc9a7000000000000000000000000000000000000000000000000000000007bffffffffffffffffffffffffffffffffffffffffffffffffffffffff1916827bffffffffffffffffffffffffffffffffffffffffffffffffffffffff1916149050919050565b60008073ffffffffffffffffffffffffffffffffffffffff166131ed83612e77565b73ffffffffffffffffffffffffffffffffffffffff1614159050919050565b6132188484848461364a565b600181111561325c576040517f08c379a0000000000000000000000000000000000000000000000000000000008152600401613253906151ad565b60405180910390fd5b6000829050600073ffffffffffffffffffffffffffffffffffffffff168573ffffffffffffffffffffffffffffffffffffffff16036132a35761329e81613650565b6132e2565b8373ffffffffffffffffffffffffffffffffffffffff168573ffffffffffffffffffffffffffffffffffffffff16146132e1576132e08582613699565b5b5b600073ffffffffffffffffffffffffffffffffffffffff168473ffffffffffffffffffffffffffffffffffffffff16036133245761331f81613806565b613363565b8473ffffffffffffffffffffffffffffffffffffffff168473ffffffffffffffffffffffffffffffffffffffff16146133625761336184826138d7565b5b5b5050505050565b50505050565b60006133918473ffffffffffffffffffffffffffffffffffffffff16613956565b156134ea578373ffffffffffffffffffffffffffffffffffffffff1663150b7a026133ba61280b565b8786866040518563ffffffff1660e01b81526004016133dc9493929190615222565b6020604051808303816000875af192505050801561341857506040513d601f19601f820116820180604052508101906134159190615283565b60015b61349a573d8060008114613448576040519150601f19603f3d011682016040523d82523d6000602084013e61344d565b606091505b506000815103613492576040517f08c379a0000000000000000000000000000000000000000000000000000000008152600401613489906150ec565b60405180910390fd5b805181602001fd5b63150b7a0260e01b7bffffffffffffffffffffffffffffffffffffffffffffffffffffffff1916817bffffffffffffffffffffffffffffffffffffffffffffffffffffffff1916149150506134ef565b600190505b949350505050565b600080600090507a184f03e93ff9f4daa797ed6e38ed64bf6a1f0100000000000000008310613555577a184f03e93ff9f4daa797ed6e38ed64bf6a1f010000000000000000838161354b5761354a61510c565b5b0492506040810190505b6d04ee2d6d415b85acef81000000008310613592576d04ee2d6d415b85acef810000000083816135885761358761510c565b5b0492506020810190505b662386f26fc1000083106135c157662386f26fc1000083816135b7576135b661510c565b5b0492506010810190505b6305f5e10083106135ea576305f5e10083816135e0576135df61510c565b5b0492506008810190505b612710831061360f5761271083816136055761360461510c565b5b0492506004810190505b6064831061363257606483816136285761362761510c565b5b0492506002810190505b600a8310613641576001810190505b80915050919050565b50505050565b6008805490506009600083815260200190815260200160002081905550600881908060018154018082558091505060019003906000526020600020016000909190919091505550565b600060016136a68461165d565b6136b091906152b0565b9050600060076000848152602001908152602001600020549050818114613795576000600660008673ffffffffffffffffffffffffffffffffffffffff1673ffffffffffffffffffffffffffffffffffffffff168152602001908152602001600020600084815260200190815260200160002054905080600660008773ffffffffffffffffffffffffffffffffffffffff1673ffffffffffffffffffffffffffffffffffffffff168152602001908152602001600020600084815260200190815260200160002081905550816007600083815260200190815260200160002081905550505b6007600084815260200190815260200160002060009055600660008573ffffffffffffffffffffffffffffffffffffffff1673ffffffffffffffffffffffffffffffffffffffff16815260200190815260200160002060008381526020019081526020016000206000905550505050565b6000600160088054905061381a91906152b0565b905060006009600084815260200190815260200160002054905060006008838154811061384a576138496146c2565b5b90600052602060002001549050806008838154811061386c5761386b6146c2565b5b9060005260206000200181905550816009600083815260200190815260200160002081905550600960008581526020019081526020016000206000905560088054806138bb576138ba6152e4565b5b6001900381819060005260206000200160009055905550505050565b60006138e28361165d565b905081600660008573ffffffffffffffffffffffffffffffffffffffff1673ffffffffffffffffffffffffffffffffffffffff168152602001908152602001600020600083815260200190815260200160002081905550806007600084815260200190815260200160002081905550505050565b6000808273ffffffffffffffffffffffffffffffffffffffff163b119050919050565b6000604051905090565b600080fd5b600080fd5b60007fffffffff0000000000000000000000000000000000000000000000000000000082169050919050565b6139c28161398d565b81146139cd57600080fd5b50565b6000813590506139df816139b9565b92915050565b6000602082840312156139fb576139fa613983565b5b6000613a09848285016139d0565b91505092915050565b60008115159050919050565b613a2781613a12565b82525050565b6000602082019050613a426000830184613a1e565b92915050565b600081519050919050565b600082825260208201905092915050565b60005b83811015613a82578082015181840152602081019050613a67565b60008484015250505050565b6000601f19601f8301169050919050565b6000613aaa82613a48565b613ab48185613a53565b9350613ac4818560208601613a64565b613acd81613a8e565b840191505092915050565b60006020820190508181036000830152613af28184613a9f565b905092915050565b6000819050919050565b613b0d81613afa565b8114613b1857600080fd5b50565b600081359050613b2a81613b04565b92915050565b600060208284031215613b4657613b45613983565b5b6000613b5484828501613b1b565b91505092915050565b600073ffffffffffffffffffffffffffffffffffffffff82169050919050565b6000613b8882613b5d565b9050919050565b613b9881613b7d565b82525050565b6000602082019050613bb36000830184613b8f565b92915050565b613bc281613b7d565b8114613bcd57600080fd5b50565b600081359050613bdf81613bb9565b92915050565b60008060408385031215613bfc57613bfb613983565b5b6000613c0a85828601613bd0565b9250506020613c1b85828601613b1b565b9150509250929050565b613c2e81613afa565b82525050565b6000602082019050613c496000830184613c25565b92915050565b600080600060608486031215613c6857613c67613983565b5b6000613c7686828701613bd0565b9350506020613c8786828701613bd0565b9250506040613c9886828701613b1b565b9150509250925092565b60008060408385031215613cb957613cb8613983565b5b6000613cc785828601613b1b565b9250506020613cd885828601613b1b565b9150509250929050565b600081519050919050565b600082825260208201905092915050565b6000819050602082019050919050565b613d1781613afa565b82525050565b6000613d298383613d0e565b60208301905092915050565b6000602082019050919050565b6000613d4d82613ce2565b613d578185613ced565b9350613d6283613cfe565b8060005b83811015613d93578151613d7a8882613d1d565b9750613d8583613d35565b925050600181019050613d66565b5085935050505092915050565b60006020820190508181036000830152613dba8184613d42565b905092915050565b600080fd5b600080fd5b7f4e487b7100000000000000000000000000000000000000000000000000000000600052604160045260246000fd5b613e0482613a8e565b810181811067ffffffffffffffff82111715613e2357613e22613dcc565b5b80604052505050565b6000613e36613979565b9050613e428282613dfb565b919050565b600067ffffffffffffffff821115613e6257613e61613dcc565b5b613e6b82613a8e565b9050602081019050919050565b82818337600083830152505050565b6000613e9a613e9584613e47565b613e2c565b905082815260208101848484011115613eb657613eb5613dc7565b5b613ec1848285613e78565b509392505050565b600082601f830112613ede57613edd613dc2565b5b8135613eee848260208601613e87565b91505092915050565b600080600080600060a08688031215613f1357613f12613983565b5b600086013567ffffffffffffffff811115613f3157613f30613988565b5b613f3d88828901613ec9565b955050602086013567ffffffffffffffff811115613f5e57613f5d613988565b5b613f6a88828901613ec9565b945050604086013567ffffffffffffffff811115613f8b57613f8a613988565b5b613f9788828901613ec9565b935050606086013567ffffffffffffffff811115613fb857613fb7613988565b5b613fc488828901613ec9565b9250506080613fd588828901613b1b565b9150509295509295909350565b6000613fed82613b5d565b9050919050565b613ffd81613fe2565b82525050565b600061012082019050614019600083018c613c25565b818103602083015261402b818b613a9f565b9050818103604083015261403f818a613a9f565b905081810360608301526140538189613a9f565b905081810360808301526140678188613a9f565b905061407660a0830187613c25565b61408360c0830186613ff4565b61409060e0830185613a1e565b61409e610100830184613c25565b9a9950505050505050505050565b6000610120820190506140c2600083018c613c25565b81810360208301526140d4818b613a9f565b905081810360408301526140e8818a613a9f565b905081810360608301526140fc8189613a9f565b905081810360808301526141108188613a9f565b905061411f60a0830187613c25565b61412c60c0830186613b8f565b61413960e0830185613a1e565b614147610100830184613c25565b9a9950505050505050505050565b60006020828403121561416b5761416a613983565b5b600061417984828501613bd0565b91505092915050565b61418b81613a12565b811461419657600080fd5b50565b6000813590506141a881614182565b92915050565b600080604083850312156141c5576141c4613983565b5b60006141d385828601613bd0565b92505060206141e485828601614199565b9150509250929050565b600067ffffffffffffffff82111561420957614208613dcc565b5b61421282613a8e565b9050602081019050919050565b600061423261422d846141ee565b613e2c565b90508281526020810184848401111561424e5761424d613dc7565b5b614259848285613e78565b509392505050565b600082601f83011261427657614275613dc2565b5b813561428684826020860161421f565b91505092915050565b600080600080608085870312156142a9576142a8613983565b5b60006142b787828801613bd0565b94505060206142c887828801613bd0565b93505060406142d987828801613b1b565b925050606085013567ffffffffffffffff8111156142fa576142f9613988565b5b61430687828801614261565b91505092959194509250565b6000806040838503121561432957614328613983565b5b600061433785828601613b1b565b925050602083013567ffffffffffffffff81111561435857614357613988565b5b61436485828601613ec9565b9150509250929050565b6000806040838503121561438557614384613983565b5b600061439385828601613bd0565b92505060206143a485828601613bd0565b9150509250929050565b7f4e487b7100000000000000000000000000000000000000000000000000000000600052602260045260246000fd5b600060028204905060018216806143f557607f821691505b602082108103614408576144076143ae565b5b50919050565b7f4552433732313a20617070726f76616c20746f2063757272656e74206f776e6560008201527f7200000000000000000000000000000000000000000000000000000000000000602082015250565b600061446a602183613a53565b91506144758261440e565b604082019050919050565b600060208201905081810360008301526144998161445d565b9050919050565b7f4552433732313a20617070726f76652063616c6c6572206973206e6f7420746f60008201527f6b656e206f776e6572206f7220617070726f76656420666f7220616c6c000000602082015250565b60006144fc603d83613a53565b9150614507826144a0565b604082019050919050565b6000602082019050818103600083015261452b816144ef565b9050919050565b7f4552433732313a2063616c6c6572206973206e6f7420746f6b656e206f776e6560008201527f72206f7220617070726f76656400000000000000000000000000000000000000602082015250565b600061458e602d83613a53565b915061459982614532565b604082019050919050565b600060208201905081810360008301526145bd81614581565b9050919050565b7f596f7520646f206e6f74206f776e20746869732067616d65206163636f756e74600082015250565b60006145fa602083613a53565b9150614605826145c4565b602082019050919050565b60006020820190508181036000830152614629816145ed565b9050919050565b7f455243373231456e756d657261626c653a206f776e657220696e646578206f7560008201527f74206f6620626f756e6473000000000000000000000000000000000000000000602082015250565b600061468c602b83613a53565b915061469782614630565b604082019050919050565b600060208201905081810360008301526146bb8161467f565b9050919050565b7f4e487b7100000000000000000000000000000000000000000000000000000000600052603260045260246000fd5b7f4e487b7100000000000000000000000000000000000000000000000000000000600052601160045260246000fd5b600061472b82613afa565b91507fffffffffffffffffffffffffffffffffffffffffffffffffffffffffffffffff820361475d5761475c6146f1565b5b600182019050919050565b600061477382613afa565b915061477e83613afa565b9250828201905080821115614796576147956146f1565b5b92915050565b60008190508160005260206000209050919050565b60006020601f8301049050919050565b600082821b905092915050565b6000600883026147fe7fffffffffffffffffffffffffffffffffffffffffffffffffffffffffffffffff826147c1565b61480886836147c1565b95508019841693508086168417925050509392505050565b6000819050919050565b600061484561484061483b84613afa565b614820565b613afa565b9050919050565b6000819050919050565b61485f8361482a565b61487361486b8261484c565b8484546147ce565b825550505050565b600090565b61488861487b565b614893818484614856565b505050565b5b818110156148b7576148ac600082614880565b600181019050614899565b5050565b601f8211156148fc576148cd8161479c565b6148d6846147b1565b810160208510156148e5578190505b6148f96148f1856147b1565b830182614898565b50505b505050565b600082821c905092915050565b600061491f60001984600802614901565b1980831691505092915050565b6000614938838361490e565b9150826002028217905092915050565b61495182613a48565b67ffffffffffffffff81111561496a57614969613dcc565b5b61497482546143dd565b61497f8282856148bb565b600060209050601f8311600181146149b257600084156149a0578287015190505b6149aa858261492c565b865550614a12565b601f1984166149c08661479c565b60005b828110156149e8578489015182556001820191506020850194506020810190506149c3565b86831015614a055784890151614a01601f89168261490e565b8355505b6001600288020188555050505b505050505050565b6000819050919050565b6000614a3f614a3a614a3584614a1a565b614820565b613afa565b9050919050565b614a4f81614a24565b82525050565b600061012082019050614a6b600083018c613c25565b8181036020830152614a7d818b613a9f565b90508181036040830152614a91818a613a9f565b90508181036060830152614aa58189613a9f565b90508181036080830152614ab98188613a9f565b9050614ac860a0830187613c25565b614ad560c0830186613ff4565b614ae260e0830185613a1e565b614af0610100830184614a46565b9a9950505050505050505050565b7f455243373231456e756d657261626c653a20676c6f62616c20696e646578206f60008201527f7574206f6620626f756e64730000000000000000000000000000000000000000602082015250565b6000614b5a602c83613a53565b9150614b6582614afe565b604082019050919050565b60006020820190508181036000830152614b8981614b4d565b9050919050565b7f4552433732313a20696e76616c696420746f6b656e2049440000000000000000600082015250565b6000614bc6601883613a53565b9150614bd182614b90565b602082019050919050565b60006020820190508181036000830152614bf581614bb9565b9050919050565b7f4552433732313a2061646472657373207a65726f206973206e6f74206120766160008201527f6c6964206f776e65720000000000000000000000000000000000000000000000602082015250565b6000614c58602983613a53565b9150614c6382614bfc565b604082019050919050565b60006020820190508181036000830152614c8781614c4b565b9050919050565b7f596f7520616c7265616479206f776e20746869732067616d65206163636f756e60008201527f7400000000000000000000000000000000000000000000000000000000000000602082015250565b6000614cea602183613a53565b9150614cf582614c8e565b604082019050919050565b60006020820190508181036000830152614d1981614cdd565b9050919050565b600081905092915050565b6000614d3682613a48565b614d408185614d20565b9350614d50818560208601613a64565b80840191505092915050565b6000614d688285614d2b565b9150614d748284614d2b565b91508190509392505050565b7f596f75206d7573742070617920746865206578616374207072696365206f662060008201527f7468652067616d65206163636f756e7400000000000000000000000000000000602082015250565b6000614ddc603083613a53565b9150614de782614d80565b604082019050919050565b60006020820190508181036000830152614e0b81614dcf565b9050919050565b7f4552433732313a207472616e736665722066726f6d20696e636f72726563742060008201527f6f776e6572000000000000000000000000000000000000000000000000000000602082015250565b6000614e6e602583613a53565b9150614e7982614e12565b604082019050919050565b60006020820190508181036000830152614e9d81614e61565b9050919050565b7f4552433732313a207472616e7366657220746f20746865207a65726f2061646460008201527f7265737300000000000000000000000000000000000000000000000000000000602082015250565b6000614f00602483613a53565b9150614f0b82614ea4565b604082019050919050565b60006020820190508181036000830152614f2f81614ef3565b9050919050565b7f4552433732313a206d696e7420746f20746865207a65726f2061646472657373600082015250565b6000614f6c602083613a53565b9150614f7782614f36565b602082019050919050565b60006020820190508181036000830152614f9b81614f5f565b9050919050565b7f4552433732313a20746f6b656e20616c7265616479206d696e74656400000000600082015250565b6000614fd8601c83613a53565b9150614fe382614fa2565b602082019050919050565b6000602082019050818103600083015261500781614fcb565b9050919050565b7f4552433732313a20617070726f766520746f2063616c6c657200000000000000600082015250565b6000615044601983613a53565b915061504f8261500e565b602082019050919050565b6000602082019050818103600083015261507381615037565b9050919050565b7f4552433732313a207472616e7366657220746f206e6f6e20455243373231526560008201527f63656976657220696d706c656d656e7465720000000000000000000000000000602082015250565b60006150d6603283613a53565b91506150e18261507a565b604082019050919050565b60006020820190508181036000830152615105816150c9565b9050919050565b7f4e487b7100000000000000000000000000000000000000000000000000000000600052601260045260246000fd5b7f455243373231456e756d657261626c653a20636f6e736563757469766520747260008201527f616e7366657273206e6f7420737570706f727465640000000000000000000000602082015250565b6000615197603583613a53565b91506151a28261513b565b604082019050919050565b600060208201905081810360008301526151c68161518a565b9050919050565b600081519050919050565b600082825260208201905092915050565b60006151f4826151cd565b6151fe81856151d8565b935061520e818560208601613a64565b61521781613a8e565b840191505092915050565b60006080820190506152376000830187613b8f565b6152446020830186613b8f565b6152516040830185613c25565b818103606083015261526381846151e9565b905095945050505050565b60008151905061527d816139b9565b92915050565b60006020828403121561529957615298613983565b5b60006152a78482850161526e565b91505092915050565b60006152bb82613afa565b91506152c683613afa565b92508282039050818111156152de576152dd6146f1565b5b92915050565b7f4e487b7100000000000000000000000000000000000000000000000000000000600052603160045260246000fdfea2646970667358221220de7fa66eeaa33805dae56f158939b47d12545567387e4f8569fc0960945e315364736f6c63430008130033",
  "immutableReferences": {},
  "source": "//SPDX-License-Identifier: UNLICENSED\r\n// smart contract for the project named Game account exchanger\r\npragma solidity ^0.8.0;\r\n// generate the template\r\n//import erc721 from openzeppelin\r\n// define the smart contract\r\nimport \"@openzeppelin/contracts/token/ERC721/extensions/ERC721Enumerable.sol\";\r\n\r\n\r\ncontract GameAccountExchanger is ERC721Enumerable  {\r\n    // constructor\r\n    constructor() ERC721(\"GameAccountExchanger\", \"GAE\") {}\r\n    // define the struct with transaction history\r\n    struct GameAccount {\r\n        uint256 id;\r\n        string gameName;\r\n        string accountName;\r\n        string password;\r\n        string description;\r\n        uint256 price;\r\n        address payable owner;\r\n        bool forSale;\r\n        uint256 request;\r\n    }\r\n    // define the mapping\r\n    mapping(uint256 => GameAccount) public gameAccounts;\r\n    // define the event\r\n    event GameAccountCreated(\r\n        uint256 id,\r\n        string gameName,\r\n        string accountName,\r\n        string password,\r\n        string description,\r\n        uint256 price,\r\n        address payable owner,\r\n        bool forSale,\r\n        uint256 request\r\n    );\r\n    modifier onlyOwner(uint256 _id) {\r\n        require(\r\n            gameAccounts[_id].owner == msg.sender,\r\n            \"You do not own this game account\"\r\n        );\r\n        _;\r\n    }\r\n    // define the function createGameAccount with AES encryption on the password\r\n    function createGameAccount(\r\n        string memory _gameName,\r\n        string memory _accountName,\r\n        string memory _password,\r\n        string memory _description,\r\n        uint256 _price\r\n    ) public {\r\n        // increment the game account id\r\n        uint256 _id = totalSupply() + 1;\r\n        // create the game account\r\n        gameAccounts[_id] = GameAccount(\r\n            _id,\r\n            _gameName,\r\n            _accountName,\r\n            _password,\r\n            _description,\r\n            _price,\r\n            payable(msg.sender),\r\n            false,\r\n            0\r\n        );\r\n        // mint the game account\r\n        _mint(msg.sender, _id);\r\n        // emit the event\r\n        emit GameAccountCreated(\r\n            _id,\r\n            _gameName,\r\n            _accountName,\r\n            _password,\r\n            _description,\r\n            _price,\r\n            payable(msg.sender),\r\n            false,\r\n            0\r\n        );\r\n    }\r\n    // define the function to buy the game account\r\n    function buyGameAccount(uint256 _id) public payable {\r\n        // fetch the game account\r\n        GameAccount memory _gameAccount = gameAccounts[_id];\r\n        require(\r\n            _gameAccount.price == msg.value,\r\n            \"You must pay the exact price of the game account\"\r\n        );\r\n        // transfer the ownership\r\n        _gameAccount.owner.transfer(msg.value);\r\n        // transfer the ownership\r\n        _transfer(_gameAccount.owner, msg.sender, _id);\r\n        // update the game account\r\n        gameAccounts[_id].owner = payable(msg.sender);\r\n        // update the game account\r\n        gameAccounts[_id].forSale = false;\r\n    }\r\n    //get the game account tokens related to the sender address\r\n    function getGameAccountTokens() public view returns (uint256[] memory) {\r\n        // get the balance of the sender\r\n        uint256 _balance = balanceOf(msg.sender);\r\n        // create the array\r\n        uint256[] memory _gameAccountTokens = new uint256[](_balance);\r\n        // loop through the balance\r\n        for (uint256 i = 0; i < _balance; i++) {\r\n            // get the token id\r\n            uint256 _tokenId = tokenOfOwnerByIndex(msg.sender, i);\r\n            // add the token id to the array\r\n            _gameAccountTokens[i] = _tokenId;\r\n        }\r\n        // return the array\r\n        return _gameAccountTokens;\r\n    }\r\n    // get the game account details\r\n    function getGameAccountDetails(uint256 _id)\r\n        public\r\n        view\r\n        returns (\r\n            uint256,\r\n            string memory,\r\n            string memory,\r\n            string memory,\r\n            string memory,\r\n            uint256,\r\n            address,\r\n            bool,\r\n            uint256\r\n        )\r\n    {\r\n        // fetch the game account\r\n        GameAccount memory _gameAccount = gameAccounts[_id];\r\n        // return the game account\r\n        return (\r\n            _gameAccount.id,\r\n            _gameAccount.gameName,\r\n            _gameAccount.accountName,\r\n            _gameAccount.password,\r\n            _gameAccount.description,\r\n            _gameAccount.price,\r\n            _gameAccount.owner,\r\n            _gameAccount.forSale,\r\n            _gameAccount.request\r\n        );\r\n    }\r\n    // get all the game tokens on the web that is for sale\r\n    function getAllGameAccountTokensForSale()\r\n        public\r\n        view\r\n        returns (uint256[] memory)\r\n    {\r\n        // get the total supply\r\n        uint256 _totalSupply = totalSupply();\r\n        // create the array\r\n        uint256[] memory _gameAccountTokensForSale = new uint256[](_totalSupply);\r\n        // loop through the total supply\r\n        for (uint256 i = 0; i < _totalSupply; i++) {\r\n            // get the token id\r\n            uint256 _tokenId = tokenByIndex(i);\r\n            // fetch the game account\r\n            // check the game account is for sale\r\n            _gameAccountTokensForSale[i] = _tokenId;\r\n        }\r\n        // return the array\r\n        return _gameAccountTokensForSale;\r\n    }\r\n    //set the token not for sale, only owner\r\n    function change_sale_state(uint256 _id, uint256 price) public onlyOwner(_id) {\r\n\r\n        // update the game account\r\n        gameAccounts[_id].forSale = !gameAccounts[_id].forSale;\r\n        // update the game account\r\n        gameAccounts[_id].price = price;\r\n    }\r\n    // Add description to the token\r\n    function addDescriptionToToken(uint256 _id, string memory _description) \r\n        public onlyOwner(_id)\r\n    {\r\n\r\n        // update the game account\r\n        gameAccounts[_id].description = _description;\r\n    }\r\n    //token exchange\r\n    function tokenExchange(uint256 _id, uint256 _id2) public onlyOwner(_id){\r\n        // fetch the game account\r\n        GameAccount memory _gameAccount = gameAccounts[_id];\r\n        // fetch the game account\r\n        GameAccount memory _gameAccount2 = gameAccounts[_id2];\r\n        // check the game account is owned by the seller\r\n        require(\r\n            _gameAccount2.owner != msg.sender,\r\n            \"You already own this game account\"\r\n        );\r\n        // transfer the ownership\r\n        _transfer(_gameAccount.owner, _gameAccount2.owner, _id);\r\n        // transfer the ownership\r\n        _transfer(_gameAccount2.owner, _gameAccount.owner, _id2);\r\n        // update the game account\r\n        gameAccounts[_id].owner = _gameAccount2.owner;\r\n        // update the game account\r\n        gameAccounts[_id2].owner = _gameAccount.owner;\r\n        // update the request on the game account\r\n        gameAccounts[_id].request = 0;\r\n        gameAccounts[_id2].request = 0;\r\n    }\r\n    //request token exchange\r\n    function requestTokenExchange(uint256 _id, uint256 _id2) public onlyOwner (_id2){\r\n        // update the request on the game account\r\n        gameAccounts[_id].request = _id2;\r\n    }\r\n    // reject\r\n    function rejectRequest(uint256 _id) public onlyOwner(_id){\r\n        // update the request on the game account\r\n        gameAccounts[_id].request = 0;\r\n    }\r\n\r\n}",
  "sourcePath": "C:\\Users\\54295\\Desktop\\New folder (2)\\GAE Dapp\\app\\src\\GAE-contract\\contracts\\GAE.sol",
  "compiler": {
    "name": "solc",
    "version": "0.8.19+commit.7dd6d404.Emscripten.clang"
  },
  "schemaVersion": "3.4.13",
  "updatedAt": "2023-05-07T01:29:48.395Z",
  "networkType": "ethereum",
  "devdoc": {
    "events": {
      "Approval(address,address,uint256)": {
        "details": "Emitted when `owner` enables `approved` to manage the `tokenId` token."
      },
      "ApprovalForAll(address,address,bool)": {
        "details": "Emitted when `owner` enables or disables (`approved`) `operator` to manage all of its assets."
      },
      "Transfer(address,address,uint256)": {
        "details": "Emitted when `tokenId` token is transferred from `from` to `to`."
      }
    },
    "kind": "dev",
    "methods": {
      "approve(address,uint256)": {
        "details": "See {IERC721-approve}."
      },
      "balanceOf(address)": {
        "details": "See {IERC721-balanceOf}."
      },
      "getApproved(uint256)": {
        "details": "See {IERC721-getApproved}."
      },
      "isApprovedForAll(address,address)": {
        "details": "See {IERC721-isApprovedForAll}."
      },
      "name()": {
        "details": "See {IERC721Metadata-name}."
      },
      "ownerOf(uint256)": {
        "details": "See {IERC721-ownerOf}."
      },
      "safeTransferFrom(address,address,uint256)": {
        "details": "See {IERC721-safeTransferFrom}."
      },
      "safeTransferFrom(address,address,uint256,bytes)": {
        "details": "See {IERC721-safeTransferFrom}."
      },
      "setApprovalForAll(address,bool)": {
        "details": "See {IERC721-setApprovalForAll}."
      },
      "supportsInterface(bytes4)": {
        "details": "See {IERC165-supportsInterface}."
      },
      "symbol()": {
        "details": "See {IERC721Metadata-symbol}."
      },
      "tokenByIndex(uint256)": {
        "details": "See {IERC721Enumerable-tokenByIndex}."
      },
      "tokenOfOwnerByIndex(address,uint256)": {
        "details": "See {IERC721Enumerable-tokenOfOwnerByIndex}."
      },
      "tokenURI(uint256)": {
        "details": "See {IERC721Metadata-tokenURI}."
      },
      "totalSupply()": {
        "details": "See {IERC721Enumerable-totalSupply}."
      },
      "transferFrom(address,address,uint256)": {
        "details": "See {IERC721-transferFrom}."
      }
    },
    "version": 1
  },
  "userdoc": {
    "kind": "user",
    "methods": {},
    "version": 1
  }
}